{
  "_format": "hh-sol-artifact-1",
  "contractName": "TaskContract",
  "sourceName": "contracts/TaskContract.sol",
  "abi": [
    {
      "anonymous": false,
      "inputs": [
        {
          "indexed": false,
          "internalType": "address",
          "name": "recipient",
          "type": "address"
        },
        {
          "indexed": false,
          "internalType": "uint256",
          "name": "taskId",
          "type": "uint256"
        },
        {
          "indexed": false,
          "internalType": "bool",
          "name": "winner",
          "type": "bool"
        },
        {
          "indexed": false,
          "internalType": "uint256",
          "name": "reward",
          "type": "uint256"
        }
      ],
      "name": "AddTask",
      "type": "event"
    },
    {
      "inputs": [
        {
          "internalType": "string",
          "name": "taskText",
          "type": "string"
        },
        {
          "internalType": "bool",
          "name": "winner",
          "type": "bool"
        },
        {
          "internalType": "uint256",
          "name": "reward",
          "type": "uint256"
        }
      ],
      "name": "addTask",
      "outputs": [],
      "stateMutability": "nonpayable",
      "type": "function"
    },
    {
      "inputs": [],
      "name": "getMyTasks",
      "outputs": [
        {
          "components": [
            {
              "internalType": "uint256",
              "name": "id",
              "type": "uint256"
            },
            {
              "internalType": "address",
              "name": "username",
              "type": "address"
            },
            {
              "internalType": "string",
              "name": "taskText",
              "type": "string"
            },
            {
              "internalType": "bool",
              "name": "winner",
              "type": "bool"
            },
            {
              "internalType": "uint256",
              "name": "reward",
              "type": "uint256"
            }
          ],
          "internalType": "struct TaskContract.Task[]",
          "name": "",
          "type": "tuple[]"
        }
      ],
      "stateMutability": "view",
      "type": "function"
    },
    {
      "inputs": [],
      "name": "myBalance",
      "outputs": [
        {
          "internalType": "uint256",
          "name": "balance",
          "type": "uint256"
        }
      ],
      "stateMutability": "view",
      "type": "function"
    }
  ],
  "bytecode": "0x608060405234801561001057600080fd5b50610e8d806100206000396000f3fe608060405234801561001057600080fd5b50600436106100415760003560e01c80636e13f818146100465780639276c85214610064578063c9116b6914610080575b600080fd5b61004e61009e565b60405161005b9190610b17565b60405180910390f35b61007e600480360381019061007991906108d9565b610496565b005b610088610638565b6040516100959190610b39565b60405180910390f35b60606000808054905067ffffffffffffffff8111156100e6577f4e487b7100000000000000000000000000000000000000000000000000000000600052604160045260246000fd5b60405190808252806020026020018201604052801561011f57816020015b61010c61075d565b8152602001906001900390816101045790505b5090506000805b60008054905081101561036a573373ffffffffffffffffffffffffffffffffffffffff166001600083815260200190815260200160002060009054906101000a900473ffffffffffffffffffffffffffffffffffffffff1673ffffffffffffffffffffffffffffffffffffffff16141561035757600081815481106101d4577f4e487b7100000000000000000000000000000000000000000000000000000000600052603260045260246000fd5b90600052602060002090600502016040518060a0016040529081600082015481526020016001820160009054906101000a900473ffffffffffffffffffffffffffffffffffffffff1673ffffffffffffffffffffffffffffffffffffffff1673ffffffffffffffffffffffffffffffffffffffff16815260200160028201805461025d90610cdf565b80601f016020809104026020016040519081016040528092919081815260200182805461028990610cdf565b80156102d65780601f106102ab576101008083540402835291602001916102d6565b820191906000526020600020905b8154815290600101906020018083116102b957829003601f168201915b505050505081526020016003820160009054906101000a900460ff1615151515815260200160048201548152505083838151811061033d577f4e487b7100000000000000000000000000000000000000000000000000000000600052603260045260246000fd5b6020026020010181905250818061035390610d42565b9250505b808061036290610d42565b915050610126565b5060008167ffffffffffffffff8111156103ad577f4e487b7100000000000000000000000000000000000000000000000000000000600052604160045260246000fd5b6040519080825280602002602001820160405280156103e657816020015b6103d361075d565b8152602001906001900390816103cb5790505b50905060005b8281101561048c5783818151811061042d577f4e487b7100000000000000000000000000000000000000000000000000000000600052603260045260246000fd5b602002602001015182828151811061046e577f4e487b7100000000000000000000000000000000000000000000000000000000600052603260045260246000fd5b6020026020010181905250808061048490610d42565b9150506103ec565b5080935050505090565b60008080549050905060006040518060a001604052808381526020013373ffffffffffffffffffffffffffffffffffffffff16815260200186815260200185151581526020018481525090806001815401808255809150506001900390600052602060002090600502016000909190919091506000820151816000015560208201518160010160006101000a81548173ffffffffffffffffffffffffffffffffffffffff021916908373ffffffffffffffffffffffffffffffffffffffff16021790555060408201518160020190805190602001906105769291906107a4565b5060608201518160030160006101000a81548160ff021916908315150217905550608082015181600401555050336001600083815260200190815260200160002060006101000a81548173ffffffffffffffffffffffffffffffffffffffff021916908373ffffffffffffffffffffffffffffffffffffffff1602179055507fb1bd8aced18eaf37458d8eadb9c0e01f481492c329da60b0493cc1fb691605ab3382858560405161062a9493929190610ad2565b60405180910390a150505050565b600080600090505b600080549050811015610759573373ffffffffffffffffffffffffffffffffffffffff166000828154811061069e577f4e487b7100000000000000000000000000000000000000000000000000000000600052603260045260246000fd5b906000526020600020906005020160010160009054906101000a900473ffffffffffffffffffffffffffffffffffffffff1673ffffffffffffffffffffffffffffffffffffffff1614156107465760008181548110610726577f4e487b7100000000000000000000000000000000000000000000000000000000600052603260045260246000fd5b906000526020600020906005020160040154826107439190610bff565b91505b808061075190610d42565b915050610640565b5090565b6040518060a0016040528060008152602001600073ffffffffffffffffffffffffffffffffffffffff16815260200160608152602001600015158152602001600081525090565b8280546107b090610cdf565b90600052602060002090601f0160209004810192826107d25760008555610819565b82601f106107eb57805160ff1916838001178555610819565b82800160010185558215610819579182015b828111156108185782518255916020019190600101906107fd565b5b509050610826919061082a565b5090565b5b8082111561084357600081600090555060010161082b565b5090565b600061085a61085584610b79565b610b54565b90508281526020810184848401111561087257600080fd5b61087d848285610c9d565b509392505050565b60008135905061089481610e29565b92915050565b600082601f8301126108ab57600080fd5b81356108bb848260208601610847565b91505092915050565b6000813590506108d381610e40565b92915050565b6000806000606084860312156108ee57600080fd5b600084013567ffffffffffffffff81111561090857600080fd5b6109148682870161089a565b935050602061092586828701610885565b9250506040610936868287016108c4565b9150509250925092565b600061094c8383610a3e565b905092915050565b61095d81610c55565b82525050565b61096c81610c55565b82525050565b600061097d82610bba565b6109878185610bdd565b93508360208202850161099985610baa565b8060005b858110156109d557848403895281516109b68582610940565b94506109c183610bd0565b925060208a0199505060018101905061099d565b50829750879550505050505092915050565b6109f081610c67565b82525050565b6109ff81610c67565b82525050565b6000610a1082610bc5565b610a1a8185610bee565b9350610a2a818560208601610cac565b610a3381610e18565b840191505092915050565b600060a083016000830151610a566000860182610ab4565b506020830151610a696020860182610954565b5060408301518482036040860152610a818282610a05565b9150506060830151610a9660608601826109e7565b506080830151610aa96080860182610ab4565b508091505092915050565b610abd81610c93565b82525050565b610acc81610c93565b82525050565b6000608082019050610ae76000830187610963565b610af46020830186610ac3565b610b0160408301856109f6565b610b0e6060830184610ac3565b95945050505050565b60006020820190508181036000830152610b318184610972565b905092915050565b6000602082019050610b4e6000830184610ac3565b92915050565b6000610b5e610b6f565b9050610b6a8282610d11565b919050565b6000604051905090565b600067ffffffffffffffff821115610b9457610b93610de9565b5b610b9d82610e18565b9050602081019050919050565b6000819050602082019050919050565b600081519050919050565b600081519050919050565b6000602082019050919050565b600082825260208201905092915050565b600082825260208201905092915050565b6000610c0a82610c93565b9150610c1583610c93565b9250827fffffffffffffffffffffffffffffffffffffffffffffffffffffffffffffffff03821115610c4a57610c49610d8b565b5b828201905092915050565b6000610c6082610c73565b9050919050565b60008115159050919050565b600073ffffffffffffffffffffffffffffffffffffffff82169050919050565b6000819050919050565b82818337600083830152505050565b60005b83811015610cca578082015181840152602081019050610caf565b83811115610cd9576000848401525b50505050565b60006002820490506001821680610cf757607f821691505b60208210811415610d0b57610d0a610dba565b5b50919050565b610d1a82610e18565b810181811067ffffffffffffffff82111715610d3957610d38610de9565b5b80604052505050565b6000610d4d82610c93565b91507fffffffffffffffffffffffffffffffffffffffffffffffffffffffffffffffff821415610d8057610d7f610d8b565b5b600182019050919050565b7f4e487b7100000000000000000000000000000000000000000000000000000000600052601160045260246000fd5b7f4e487b7100000000000000000000000000000000000000000000000000000000600052602260045260246000fd5b7f4e487b7100000000000000000000000000000000000000000000000000000000600052604160045260246000fd5b6000601f19601f8301169050919050565b610e3281610c67565b8114610e3d57600080fd5b50565b610e4981610c93565b8114610e5457600080fd5b5056fea26469706673582212206094fe0316786c2e52c3dc678b57eee1da6c5d8a025eb3d99c05c6d5a22a896564736f6c63430008040033",
  "linkReferences": {},
  "deployedLinkReferences": {}
}