{
  "_format": "hh-sol-artifact-1",
  "contractName": "TaskContract",
  "sourceName": "contracts/TaskContract.sol",
  "abi": [
    {
      "anonymous": false,
      "inputs": [
        {
          "indexed": false,
          "internalType": "address",
          "name": "recipient",
          "type": "address"
        },
        {
          "indexed": false,
          "internalType": "uint256",
          "name": "taskId",
          "type": "uint256"
        },
        {
          "indexed": false,
          "internalType": "bool",
          "name": "winner",
          "type": "bool"
        }
      ],
      "name": "AddTask",
      "type": "event"
    },
    {
      "inputs": [
        {
          "internalType": "string",
          "name": "taskText",
          "type": "string"
        },
        {
          "internalType": "bool",
          "name": "winner",
          "type": "bool"
        }
      ],
      "name": "addTask",
      "outputs": [],
      "stateMutability": "nonpayable",
      "type": "function"
    },
    {
      "inputs": [],
      "name": "getMyTasks",
      "outputs": [
        {
          "components": [
            {
              "internalType": "uint256",
              "name": "id",
              "type": "uint256"
            },
            {
              "internalType": "address",
              "name": "username",
              "type": "address"
            },
            {
              "internalType": "string",
              "name": "taskText",
              "type": "string"
            },
            {
              "internalType": "bool",
              "name": "winner",
              "type": "bool"
            }
          ],
          "internalType": "struct TaskContract.Task[]",
          "name": "",
          "type": "tuple[]"
        }
      ],
      "stateMutability": "view",
      "type": "function"
    }
  ],
  "bytecode": "0x608060405234801561001057600080fd5b50610c4a806100206000396000f3fe608060405234801561001057600080fd5b50600436106100365760003560e01c806320df45811461003b5780636e13f81814610057575b600080fd5b61005560048036038101906100509190610752565b610075565b005b61005f610204565b60405161006c919061095c565b60405180910390f35b600080805490509050600060405180608001604052808381526020013373ffffffffffffffffffffffffffffffffffffffff16815260200185815260200184151581525090806001815401808255809150506001900390600052602060002090600402016000909190919091506000820151816000015560208201518160010160006101000a81548173ffffffffffffffffffffffffffffffffffffffff021916908373ffffffffffffffffffffffffffffffffffffffff160217905550604082015181600201908051906020019061014f9291906105f2565b5060608201518160030160006101000a81548160ff0219169083151502179055505050336001600083815260200190815260200160002060006101000a81548173ffffffffffffffffffffffffffffffffffffffff021916908373ffffffffffffffffffffffffffffffffffffffff1602179055507f183799e7acc20c39df10f42b7543fcee57164e4f3d1c63e736367efa1f2b12b73382846040516101f793929190610925565b60405180910390a1505050565b60606000808054905067ffffffffffffffff81111561024c577f4e487b7100000000000000000000000000000000000000000000000000000000600052604160045260246000fd5b60405190808252806020026020018201604052801561028557816020015b610272610678565b81526020019060019003908161026a5790505b5090506000805b6000805490508110156104c6573373ffffffffffffffffffffffffffffffffffffffff166001600083815260200190815260200160002060009054906101000a900473ffffffffffffffffffffffffffffffffffffffff1673ffffffffffffffffffffffffffffffffffffffff1614156104b3576000818154811061033a577f4e487b7100000000000000000000000000000000000000000000000000000000600052603260045260246000fd5b9060005260206000209060040201604051806080016040529081600082015481526020016001820160009054906101000a900473ffffffffffffffffffffffffffffffffffffffff1673ffffffffffffffffffffffffffffffffffffffff1673ffffffffffffffffffffffffffffffffffffffff1681526020016002820180546103c390610ab3565b80601f01602080910402602001604051908101604052809291908181526020018280546103ef90610ab3565b801561043c5780601f106104115761010080835404028352916020019161043c565b820191906000526020600020905b81548152906001019060200180831161041f57829003601f168201915b505050505081526020016003820160009054906101000a900460ff161515151581525050838381518110610499577f4e487b7100000000000000000000000000000000000000000000000000000000600052603260045260246000fd5b602002602001018190525081806104af90610b16565b9250505b80806104be90610b16565b91505061028c565b5060008167ffffffffffffffff811115610509577f4e487b7100000000000000000000000000000000000000000000000000000000600052604160045260246000fd5b60405190808252806020026020018201604052801561054257816020015b61052f610678565b8152602001906001900390816105275790505b50905060005b828110156105e857838181518110610589577f4e487b7100000000000000000000000000000000000000000000000000000000600052603260045260246000fd5b60200260200101518282815181106105ca577f4e487b7100000000000000000000000000000000000000000000000000000000600052603260045260246000fd5b602002602001018190525080806105e090610b16565b915050610548565b5080935050505090565b8280546105fe90610ab3565b90600052602060002090601f0160209004810192826106205760008555610667565b82601f1061063957805160ff1916838001178555610667565b82800160010185558215610667579182015b8281111561066657825182559160200191906001019061064b565b5b50905061067491906106b8565b5090565b604051806080016040528060008152602001600073ffffffffffffffffffffffffffffffffffffffff168152602001606081526020016000151581525090565b5b808211156106d15760008160009055506001016106b9565b5090565b60006106e86106e3846109a3565b61097e565b90508281526020810184848401111561070057600080fd5b61070b848285610a71565b509392505050565b60008135905061072281610bfd565b92915050565b600082601f83011261073957600080fd5b81356107498482602086016106d5565b91505092915050565b6000806040838503121561076557600080fd5b600083013567ffffffffffffffff81111561077f57600080fd5b61078b85828601610728565b925050602061079c85828601610713565b9150509250929050565b60006107b283836108a4565b905092915050565b6107c381610a29565b82525050565b6107d281610a29565b82525050565b60006107e3826109e4565b6107ed8185610a07565b9350836020820285016107ff856109d4565b8060005b8581101561083b578484038952815161081c85826107a6565b9450610827836109fa565b925060208a01995050600181019050610803565b50829750879550505050505092915050565b61085681610a3b565b82525050565b61086581610a3b565b82525050565b6000610876826109ef565b6108808185610a18565b9350610890818560208601610a80565b61089981610bec565b840191505092915050565b60006080830160008301516108bc6000860182610907565b5060208301516108cf60208601826107ba565b50604083015184820360408601526108e7828261086b565b91505060608301516108fc606086018261084d565b508091505092915050565b61091081610a67565b82525050565b61091f81610a67565b82525050565b600060608201905061093a60008301866107c9565b6109476020830185610916565b610954604083018461085c565b949350505050565b6000602082019050818103600083015261097681846107d8565b905092915050565b6000610988610999565b90506109948282610ae5565b919050565b6000604051905090565b600067ffffffffffffffff8211156109be576109bd610bbd565b5b6109c782610bec565b9050602081019050919050565b6000819050602082019050919050565b600081519050919050565b600081519050919050565b6000602082019050919050565b600082825260208201905092915050565b600082825260208201905092915050565b6000610a3482610a47565b9050919050565b60008115159050919050565b600073ffffffffffffffffffffffffffffffffffffffff82169050919050565b6000819050919050565b82818337600083830152505050565b60005b83811015610a9e578082015181840152602081019050610a83565b83811115610aad576000848401525b50505050565b60006002820490506001821680610acb57607f821691505b60208210811415610adf57610ade610b8e565b5b50919050565b610aee82610bec565b810181811067ffffffffffffffff82111715610b0d57610b0c610bbd565b5b80604052505050565b6000610b2182610a67565b91507fffffffffffffffffffffffffffffffffffffffffffffffffffffffffffffffff821415610b5457610b53610b5f565b5b600182019050919050565b7f4e487b7100000000000000000000000000000000000000000000000000000000600052601160045260246000fd5b7f4e487b7100000000000000000000000000000000000000000000000000000000600052602260045260246000fd5b7f4e487b7100000000000000000000000000000000000000000000000000000000600052604160045260246000fd5b6000601f19601f8301169050919050565b610c0681610a3b565b8114610c1157600080fd5b5056fea2646970667358221220d69bcc4d4e72ced44634a566a69b7c06df7aaa6af23975c4019d0388e16713f864736f6c63430008040033",
  "linkReferences": {},
  "deployedLinkReferences": {}
}